:10800000040000001400000003000000474E55006B
:1080100049FABE14C843893EC15CE5773054DF1A83
:0480200061A8F7D785
:0C802400F8B5C046F8BC08BC9E4670478A
:108030000648074B10B5834204D0064B002B01D0F5
:1080400000F04EF810BC01BC0047C046A4B60100C9
:10805000A4B601000000000008480949091A891067
:10806000CB0F591810B5491004D0064B002B01D086
:1080700000F036F810BC01BC0047C046A4B60100B1
:10808000A4B601000000000010B5084C2378002BB6
:1080900009D1FFF7CDFF064B002B02D00548AFF307
:1080A00000800123237010BC01BC0047A4B601006E
:1080B0000000000040AD0000064B10B5002B03D0BF
:1080C00005490648AFF30080FFF7C6FF10BC01BCAE
:1080D0000047C04600000000A8B6010040AD000007
:1080E0001847C0461600B0E3471F8FE2563412EF20
:1080F00014019FE5041090E528219FE5001082E51A
:10810000001090E5000051E30100001A10119FE5F6
:10811000001080E5081090E50C2090E5000051E388
:108120000000000A01D0A0E1000052E30000000AB4
:1081300001AC82E20010B0E301B0A0E10170A0E167
:10814000C8009FE5C8209FE5002052E0690000FAC2
:10815000310100EB1500B0E3BC108FE2563412EF92
:10816000B4109FE50000B0E301002DE90130D1E437
:10817000000053E31100000A200053E3FAFFFF0A56
:10818000220053E3270053130320A0012020A01353
:108190000110411202002DE9010090E20130D1E40A
:1081A000000053E30500000A030052E1FAFFFF1A42
:1081B0000020B0E3013051E20020C3E5EAFFFFEA0E
:1081C0000D10A0E100218DE00D30A0E1030052E18F
:1081D0000440128500509385045022850440838416
:1081E000F9FFFF8A07D0CDE30040B0E10150B0E1D4
:1081F00020009FE50C0000FA290000FA0400B0E11D
:108200000510B0E18F0700FA0C0000FA50AD010034
:10821000A4B60100A8B701006982000060AD0100AA
:10822000FF000000A8B7010090B2010010B50100E6
:1082300000230022002000F0B1F810BC02BC084767
:1082400010B50021040000F015F9054B1868C36B48
:10825000002B01D000F006F8200000F031FFC046EE
:1082600014AD00001847C04670B50A4B0A4CE41A1A
:10827000A4100AD0094AA518AD00ED182B68013CDE
:1082800000F00EF8043D002CF8D102F03DFD70BC6A
:1082900001BC004748AD01004CAD0100FFFFFF3FAE
:1082A0001847C04670B50F4E0F4DAD1BAD1007D02F
:1082B0000024A300F358013400F01CF8A542F8D1C3
:1082C000FFF7B0FE094E0A4DAD1BAD1007D00024DC
:1082D000A300F358013400F00DF8A542F8D170BCAA
:1082E00001BC004744AD010044AD010044AD0100B4
:1082F00048AD01001847C046F0B583074AD0541E68
:10830000002A44D00D062D0E0200032602E01A00BA
:10831000013C3CD3531C15703342F8D1032C2DD9AA
:10832000FF220A40150215432A0415430F2C16D9C3
:108330002700103F3F093E01B4461E001A001036C8
:108340006644156055609560D5601032B242F8D130
:108350000F2201373F01DB191440032C0ED9261FD1
:10836000B608B700BC461A001F1D674420C2BA42B7
:10837000FCD103220136B6009B191440002C06D014
:1083800009061C19090E197001339C42FBD1F0BC7F
:1083900002BC084714000300C0E7C046F8B5DE463B
:1083A0009B46324B1C68A42345464E4657465B000D
:1083B000E0B50500E0580E00904600284DD0436817
:1083C0001F2B0FDC5C1C002D23D102339B0044606B
:1083D0001E5000203CBC90469946A246AB46F8BCD5
:1083E00002BC0847224B002B3CD0C8204000AFF312
:1083F0000080002836D0A42200235200A1584360F8
:108400000160A05040328350043283500124002D7B
:10841000DBD09A0091468144424688214F467A50EB
:10842000C4225200904680444246873999401268DF
:108430000A4394468A464246614611608422494670
:108440005F4652008F50022DBFD1020055468D323B
:10845000FF3211680D431560B7E720004D30FF3043
:10846000E050ACE701204042B4E7C04614AD000044
:1084700000000000F0B55746DE464E464546E0B5E2
:108480000F003C4B1B6887B003934933FF330590C3
:108490000493A422039B52009E58002E4CD0049BB0
:1084A0009A4601239B467468651E33D4C4235B003F
:1084B000994604339C46B44463460134A4003419FD
:1084C000B144019302E0043C013D23D3002F04D0CA
:1084D000631CFF331B68BB42F5D17368013B226804
:1084E000AB4232D000232360002AECD07368984658
:1084F0005B464946AB400968194228D100F03EF876
:1085000073684345C5D153461B68B342C1D1043C8F
:10851000013DDBD2184B002B0ED072683368002A65
:1085200021D1002B1FD0524630001360AFF30080E2
:1085300053461E68002EB6D107B03CBC9046994603
:10854000A246AB46F0BC01BC00477560CCE72100F9
:1085500001980068803109680290184206D1059898
:1085600000F00CF8CCE7B2461E00E3E7080000F08C
:1085700005F8C5E714AD0000000000001047C04634
:1085800058309FE5003093E5000053E310402DE99B
:108590000040A0E10200000A382093E5000052E309
:1085A0000800000A130054E30900008A30009FE528
:1085B000843190E7010073E30500000A840180E044
:1085C0001040BDE81EFF2FE10300A0E14B0300FABD
:1085D000F3FFFFEA0000A0E31040BDE81EFF2FE11B
:1085E00060AE0100C0B6010070402DE9C60200FA7D
:1085F0001340A0E30050A0E10060A0E30400A0E16C
:108600000610A0E1563412EF0040A0E10000E0E3C4
:10861000004085E57040BDE81EFF2FE1F0432DE9E5
:108620000030A0E30370A0E3D0809FE514D04DE2BA
:1086300004808DE50150A0E30C708DE504608DE2AF
:1086400008308DE50500A0E10610A0E1563412EFD8
:108650000090A0E10430A0E3A4409FE504808DE5F4
:10866000A09084E50C708DE508308DE50500A0E153
:108670000610A0E1563412EF0090A0E10830A0E30C
:1086800004808DE5A49084E50C708DE508308DE5BF
:108690000500A0E10610A0E1563412EF0050A0E161
:1086A000010075E3A40094050510A0110010A001BD
:1086B0000030A0E30020E0E3A85084E5A400941576
:1086C000A8008405832184E7013083E2140053E38A
:1086D000FBFFFF1A0030A0E3A02094E5080084E52A
:1086E000101084E5043084E50C3084E5143084E512
:1086F000002084E514D08DE2F043BDE81EFF2FE199
:108700001CAD0000C0B6010030402DE914D04DE290
:1087100007008DE90640A0E304508DE20400A0E1CB
:108720000510A0E1563412EF0040A0E1010074E30F
:108730000400A0110200000A14D08DE23040BDE810
:108740001EFF2FE1A7FFFFEB14D08DE23040BDE804
:108750001EFF2FE1F0402DE914D04DE20170A0E1A1
:108760000260A0E185FFFFEB005050E21A00000A12
:10877000003095E50640A0E388008DE90C608DE5AA
:1087800004708DE20400A0E10710A0E1563412EF5E
:108790000040A0E1010074E30700000A042095E511
:1087A000044046E0042082E0042085E50400A0E1C6
:1087B00014D08DE2F040BDE81EFF2FE189FFFFEBF2
:1087C000010070E30040A0E1F3FFFF1A0400A0E104
:1087D00014D08DE2F040BDE81EFF2FE14A0200FAFE
:1087E0000920A0E30040E0E3002080E5EEFFFFEA7F
:1087F000F0432DE90CD04DE20190A0E10240A0E150
:108800005EFFFFEB006050E23600000A020054E316
:108810002F00008A010054E31E00000A020054E306
:10882000003096E50D80A0110E00000A08028DE8C8
:108830000A40A0E30400A0E10810A0E1563412EFC2
:108840000040A0E1010074E31800000A000054E3B6
:108850001D0000BA049086E50900A0E10CD08DE26D
:10886000F043BDE81EFF2FE108808DE20C70A0E30D
:10887000083028E50700A0E10810A0E1563412EF07
:108880000050A0E1010075E30B00000A059089E0AB
:10889000003096E5E4FFFFEA045096E5059099E084
:1088A0000B00004A003096E50D80A0E1DEFFFFEAF4
:1088B0004CFFFFEB0040A0E1E3FFFFEA49FFFFEBC5
:1088C000010070E30050A0E1EFFFFF1A0090E0E329
:1088D000E0FFFFEA0C0200FA1630A0E30090E0E3AC
:1088E000003080E5DBFFFFEA070200FA0930A0E371
:1088F0000090E0E3003080E5D6FFFFEABBFFFFEA2F
:1089000030402DE914D04DE207008DE90540A0E389
:1089100004508DE20400A0E10510A0E1563412EFEE
:108920000040A0E1010074E30400A0110200000A6D
:1089300014D08DE23040BDE81EFF2FE129FFFFEB90
:1089400014D08DE23040BDE81EFF2FE1F0402DE94C
:1089500014D04DE20170A0E10260A0E107FFFFEB3F
:10896000005050E22800000A003095E50540A0E3E1
:1089700088008DE90C608DE504708DE20400A0E1B3
:108980000710A0E1563412EF0040A0E1010074E3AB
:108990000400A0E11800000A000050E3180000BA2B
:1089A000043095E5004046E0043083E0000056E1E5
:1089B000043085E50300000A0400A0E114D08DE234
:1089C000F040BDE81EFF2FE1CF0100FA1350A0E3F5
:1089D0000060A0E10040A0E30500A0E10410A0E1D8
:1089E000563412EF0050A0E10400A0E1005086E5EB
:1089F00014D08DE2F040BDE81EFF2FE1F9FEFFEB41
:108A0000E4FFFFEA0040E0E3EAFFFFEABE0100FA0C
:108A10000930A0E30040E0E3003080E5E5FFFFEA35
:108A200030402DE90CD04DE208508DE20240A0E329
:108A3000040025E50400A0E10510A0E1563412EF82
:108A40000040A0E1010074E30400A0110200000A4C
:108A50000CD08DE23040BDE81EFF2FE1E1FEFFEBC0
:108A60000CD08DE23040BDE81EFF2FE170402DE9B3
:108A700008D04DE20040A0E1C0FEFFEB006050E2F4
:108A80001F00000A014044E2010054E31000009A74
:108A9000003096E508508DE20240A0E3043025E561
:108AA0000400A0E10510A0E1563412EF0040A0E15F
:108AB000010074E30F00000A000054E30020E0030B
:108AC000002086050400A0E108D08DE27040BDE8DA
:108AD0001EFF2FE13C309FE5082093E5103093E521
:108AE000030052E10020E0030040A00300208605BF
:108AF000E6FFFF1AF2FFFFEABAFEFFEB0040A0E13B
:108B0000ECFFFFEA800100FA0920A0E30040E0E367
:108B1000002080E5EAFFFFEAC0B601000100A0E303
:108B20001EFF2FE16C209FE5AC3092E510402DE94F
:108B3000000053E360109F050130A001AC108205D6
:108B40000D10A0E1000083E0010050E10A00008A5E
:108B500048109FE548C09FE5001091E50C0051E1E9
:108B60000100000A010050E10300008AAC0082E528
:108B70001040BDE80300A0E11EFF2FE1620100FAF2
:108B80000C20A0E30030E0E3002080E51040BDE8C9
:108B90000300A0E11EFF2FE1C0B60100A8B701004D
:108BA00090B20100ADDEFECA70402DE90150A0E197
:108BB00072FEFFEB006050E21500000A012BA0E3FB
:108BC000043095E5023A83E3043085E52C2085E501
:108BD0000C40A0E30400A0E10610A0E1563412EF1F
:108BE0000040A0E1010074E30400000A104085E5A4
:108BF0000040A0E30400A0E17040BDE81EFF2FE1AB
:108C000078FEFFEB010070E30040A0E1F6FFFF1AE1
:108C1000F7FFFFEA3C0100FA0920A0E30040E0E38F
:108C2000002080E5F2FFFFEA10402DE93C20A0E3A0
:108C30000040A0E10100A0E10010A0E3ADFDFFFABB
:108C40000010A0E10400A0E11040BDE8D5FFFFEA5C
:108C500070402DE90050A0E13C20A0E30100A0E11C
:108C60000140A0E10010A0E3A2FDFFFA0500A0E191
:108C70000010A0E30F0000EB010070E30050A0E142
:108C80000A00000A043094E5813C83E3043084E563
:108C90000410A0E1C3FFFFEB0040A0E10500A0E14C
:108CA00071FFFFEB0400A0E17040BDE81EFF2FE163
:108CB0000040A0E1FAFFFFEAF0472DE900A0A0E1A3
:108CC00040D04DE20190A0E10040A0E324619FE587
:108CD000020000EA014084E2140054E32500000A87
:108CE000845196E7010075E38471A0E1F8FFFF1A53
:108CF0000A3C09E20A0C53E304808DE23300000AC7
:108D0000F4309FE52958A0E1015005E2020019E383
:108D100002508513030019E104508513080019E37C
:108D20000450C5130A00A0E10850851304A08DE586
:108D3000420300FA08508DE50C008DE50150A0E3D8
:108D40000500A0E10810A0E1563412EF0080A0E178
:108D5000000058E30F0000BA0030A0E3077086E07F
:108D6000848186E7043087E50400A0E140D08DE2ED
:108D7000F047BDE81EFF2FE1E30000FA0040E0E30A
:108D80001830A0E3003080E50400A0E140D08DE27F
:108D9000F047BDE81EFF2FE1DB0000FA1340A0E31F
:108DA0000050A0E10060A0E30400A0E10610A0E1F3
:108DB000563412EF0040A0E1004085E50840A0E1F4
:108DC0000400A0E140D08DE2F047BDE81EFF2FE196
:108DD0000810A0E10A00A0E19CFFFFEB010070E396
:108DE000C6FFFF0AC80000FA1130A0E30540A0E169
:108DF000003080E5DBFFFFEAC0B60100010600009D
:108E00000E002DE904E02DE504109DE5A9FFFFEB20
:108E100004E09DE40CD08DE21EFF2FE110402DE90F
:108E2000B90000FA5830A0E31040BDE8003080E5FA
:108E30000000E0E31EFF2FE1F0402DE90CD04DE2F1
:108E400000008DE5FD0200FA0E40A0E304008DE570
:108E50000D50A0E10400A0E10510A0E1563412EF8E
:108E60000040A0E1010074E30040A0130300000AE9
:108E70000400A0E10CD08DE2F040BDE81EFF2FE120
:108E8000A10000FA1350A0E30060A0E10070A0E38D
:108E90000500A0E10710A0E1563412EF0050A0E158
:108EA000005086E5F1FFFFEAF0402DE9006050E256
:108EB0000140A0E10600000A1150A0E30070A0E309
:108EC0000500A0E10710A0E1563412EF0050A0E128
:108ED000A00086E8000054E30030A0130000A0E3E7
:108EE0000030841504308415F040BDE81EFF2FE1EA
:108EF00030402DE91040A0E30050A0E30400A0E1C1
:108F00000510A0E1563412EF0040A0E10400A0E1FA
:108F10003040BDE81EFF2FE170402DE90040A0E188
:108F20001050A0E30060A0E30500A0E10610A0E15E
:108F3000563412EF0050A0E1060054E10500A0E114
:108F400060008418086084150C6084157040BDE8CA
:108F50001EFF2FE170402DE988FDFFEB004050E23D
:108F60001200000A0950A0E30500A0E10410A0E1EE
:108F7000563412EF0040A0E1010054E30800000A5B
:108F8000610000FA1350A0E30060A0E10040A0E3FC
:108F90000500A0E10410A0E1563412EF0050A0E15A
:108FA000005086E50400A0E17040BDE81EFF2FE1FF
:108FB000550000FA0920A0E3002080E50400A0E1AC
:108FC0007040BDE81EFF2FE1003050E21C00000A97
:108FD00030402DE90CD04DE200308DE5970200FACB
:108FE0001240A0E304008DE50D50A0E10400A0E1D3
:108FF0000510A0E1563412EF0040A0E1010074E337
:109000000400A0E11000000AFF0050E30900008AFC
:10901000000050E30700000A0030A0E18330B0E117
:109020004324A0E1FF2002E20100000A000052E117
:10903000F9FFFF1A0300A0E10CD08DE23040BDE83B
:109040001EFF2FE10100A0E31EFF2FE165FDFFEBF6
:10905000ECFFFFEA30402DE914D04DE20140A0E1E1
:1090600000008DE5750200FA04008DE50400A0E122
:1090700008408DE5710200FA0F40A0E30C008DE579
:109080000D50A0E10400A0E10510A0E1563412EF5C
:109090000040A0E1010074E30500000A000094E232
:1090A0000100A013000060E214D08DE23040BDE862
:1090B0001EFF2FE14BFDFFEB0040A0E1F6FFFFEAB2
:1090C00010402DE90010E0E3010000EB1040BDE886
:1090D0001EFF2FE1060051E330402DE91840A0E3C8
:1090E0001C509F051C509F150400A0E10510A0E135
:1090F000563412EF0040A0E10400A0E13040BDE88A
:109100001EFF2FE12300020026000200014B186819
:109110007047C04660AE01000020704710B503499B
:1091200000F042F910BC01BC0047C046FD9A0000A7
:10913000F0B5D6464F464646314BC0B5C363B8235B
:10914000002403229B00C45004334568C2500833F6
:10915000C218043BC2500600042328006C662C6031
:109160006C60AC60EB602C616C61AC61082200212A
:109170005C30FFF7C1F8234B9A462B62224B234FFA
:1091800099466B62224BEF62AB62ED61B5682800D5
:109190009846204B6C662C606C60AC60EB602C6178
:1091A0006C61AC61082200215C30FFF7A5F85346E2
:1091B0002B624B466B624346EF62AB62ED61F56832
:1091C0002800154B6C66EB602C606C60AC602C6109
:1091D0006C61AC61082200215C30FFF78DF85346CA
:1091E0002B624B466B624346AB620123EF62ED613B
:1091F000B3631CBC90469946A246F0BC01BC004734
:109200001D91000091990000C1990000319A000061
:10921000019A0000090001001200020000207047BE
:10922000F8B568244A1E270057430E0039007431F0
:1092300000F0E6F8051E09D000233A0003604660FE
:109240000C30A86068320021FFF756F82800F8BCFF
:1092500002BC0847214B70B51D68AB6B0600002BA4
:109260002CD0B8239B009C4665446B68AC68013BDE
:1092700003D51EE06834013B1BD30C21625E002A3B
:10928000F8D100252000164B656625606560A56055
:10929000E36025616561A561082200215C30FFF76C
:1092A0002BF8256365636564A564200070BC02BC6F
:1092B00008472868002805D00500D6E72800FFF7F2
:1092C00037FFCEE704213000FFF7AAFF286000280F
:1092D000F2D10C2300243360E7E7C04614AD000050
:1092E0000100FFFF10B5044B0449186800F05CF85A
:1092F00010BC01BC0047C04614AD0000FD9A000040
:10930000836B10B5002B01D1FFF712FF10BC01BC1D
:109310000047C0467047C0467047C0467047C046C9
:109320007047C04610B5044B0449186800F016F8A1
:1093300010BC01BC0047C04660AE0100199100009E
:1093400010B5044B0449186800F008F810BC01BCC3
:109350000047C04660AE01001D920000B823F0B582
:10936000C6469B00C71800B588460026002F14D0BB
:109370007B68BC685D1E0DD4A389012B07D90E2222
:10938000A35E013303D0200000F037F806436834B1
:10939000013DF1D23F68002FEAD1300004BC904675
:1093A000F0BC02BC0847C046F8B54746CE4680B57B
:1093B000B8278046BF00474489460026002F15D0B5
:1093C0007B68BC685D1E0ED4A389012B08D90E22D0
:1093D000A35E013304D02100404600F00FF806439D
:1093E0006834013DF0D23F68002FE9D130000CBC59
:1093F00090469946F8BC02BC084740474847C046DB
:10940000F0B557464546DE464E46E0B50D000B35F5
:1094100083B00700162D2AD8102900D9D1E000F01A
:109420009FFA102518230220CF4EF3181A005C680B
:10943000083A944200D17EE1032362689A43130004
:10944000E268A168CA6091600122E31859680A4382
:1094500038005A6000F086FA2000083003B03CBCA7
:1094600090469946A246AB46F0BC02BC084707238B
:109470009D4300D5A5E08D4200D2A2E000F070FA35
:10948000F823FF339D4200D87AE1680A0BD0042804
:1094900000D88FE0142800D9B7E15B2398468044B8
:1094A0005C30C10004E03F238021402098468900C1
:1094B000AD4E71180839CC68A14218D003236268F8
:1094C0009A431300521B0F2A00DD32E1002AB7DA5B
:1094D00003239C4608E06246636893435A1B0F2AA5
:1094E00000DD26E1002AABDAE468A142F3D13200C4
:1094F00034690832944268D00323616899438A46EC
:109500000B00491B0F2900DD1BE17261326100294C
:109510009ADA964A924500D951E1DB08FF3A991050
:10952000FF3A8A40DB0071689B190A4399687260B0
:10953000E360A1609C60CC6001218310994091425E
:1095400049D80A4205D103239843490004300A420E
:10955000FBD003239846C3009946B144CC468246CB
:109560006346DC68A44507D10EE1002A00DB17E161
:10957000E468A44500D107E14246636893435A1B5F
:109580000F2AF2DD01208046611905436560A0685D
:10959000E568C560A86040467161316110430836D6
:1095A0004860CE608E603800E25000F0DBF92000A9
:1095B000083053E738239846A80980443930C10061
:1095C00076E70C2300203B6048E701217268831096
:1095D00099409142B5D903230F210020B4686268F5
:1095E0009A43531B9046DA0F9942424112060FD11B
:1095F000A8450DD301222900134311436519616069
:109600003800B5606B6000F0ADF92000083025E748
:10961000574B584A9A4693461B681268EB1801321A
:1096200000D131E1544A944663441B0B1B03019360
:109630000199380000F098F903008146013300D108
:10964000F2E04346E318834200D9EBE05246526809
:1096500094465246019961445160834200D12AE107
:109660005A461268013200D141E14A46D31A5918CC
:109670005346596007234A46134000D10FE10821A1
:1096800089463E49D21A9144CB1A019A4A4411059F
:10969000090D5B1A190038009B4600F065F9431C60
:1096A00000D120E14B46C01A0123584418435346C9
:1096B0005B685B441900534659604B46B360586081
:1096C000B44212D043460F2B00D808E1072260684D
:1096D0000C3B9343063A024005201A436260E218AD
:1096E000506090600F2B00D91EE15346DB6A99420F
:1096F00001D95346D9620323B4686068984353463E
:109700001B6B8146994201D9534619630F21884644
:109710004B46002140465B1BDA0F98424A41120635
:1097200002D1A94500D365E7380000F01BF90020FD
:1097300094E64046DBE6DC680230A34200D1D6E680
:109740007AE6012360191D43656070613061C26073
:1097500082601A0053460A4342603800E15000F02C
:1097600001F92000083079E69CB20100FF010000F9
:1097700070B7010094B201000F1000000810000043
:109780002B00E80808334FE608239B46073BDC44E0
:109790009B46DA4443465246134200D0E0E65EE080
:1097A0000122E31859680A435A60E368A268380046
:1097B000D3609A6000F0D6F8200008304EE65A0ACE
:1097C000042A37D9142A6DD85B23984690445C321A
:1097D000D20008235B429C46B218944463469968C1
:1097E000032399468C4552D04B464A689A435245CA
:1097F00002D989688C45F7D1CB689C46726863466C
:10980000A160E3609C60CC6096E6542819D9AA2335
:109810005B00984259D8DD3B9846E80B804478308D
:10982000C10045E6B44266D00323B468606898433B
:1098300081466BE79A093823984690443932D20022
:10984000C7E76E239846280B80446F30C1002FE68F
:109850004B461A68083B013891469A427BD14346F1
:109860000342F5D173688B43736049008B4200D289
:10987000B1E6002904D1AEE6042294464900E24450
:109880000B42F9D0504666E610330193D0E64346CA
:1098900001229B109A4073681A437260AFE78023DD
:1098A0005B01F2E6542A2ED81A0B6E239846904498
:1098B0006F32D2008DE71A0500D0D1E60120019B5E
:1098C000B2684344034353600FE7244B984225D8C2
:1098D0007C239846A80C80447D30C100E8E5012334
:1098E0004A46536020E7002301209B46DFE65B46A3
:1098F0004A461A60BEE6524652689446524601995C
:1099000061445160ACE6AA2149008A4214D8DA0BBE
:109910007723984690447832D2005AE7FE217E237E
:1099200089007F209846C3E521003800083100F007
:1099300073FA53465968D8E608498A4206D89A0C01
:109940007C23984690447D32D20042E7FE227E235B
:10995000920098463DE7736887E7C04654050000CB
:109960007047C0467047C046002370B5074C0500DD
:1099700008002360FFF7D6F8431C02D070BC02BC7D
:1099800008472368002BF9D02B60F7E7A4B7010044
:1099900070B50C000E25495F00F040FB002805DB88
:1099A000236D1B18236570BC02BC0847A389024ABB
:1099B0001340A381F7E7C046FFEFFFFF0020704789
:1099C000F8B516001F000C228B5E0C0005000E225D
:1099D000895EDA0507D50022022300F009FB0C227C
:1099E000A35E0E22A15E054A1340A38132003B0014
:1099F000280000F059F8F8BC02BC0847FFEFFFFF51
:109A000070B50C000E25495F00F0F2FA431C08D037
:109A10008023A2895B011343A381206570BC02BC33
:109A20000847A389014A1340A381F7E7FFEFFFFF2F
:109A300010B50E23C95E00F04DF810BC02BC0847FB
:109A400010B5040083070AD00378002B25D0032229
:109A500002E00378002B1CD001301042F9D10268DB
:109A60000F4B1049D31893430B420FD104300268B7
:109A70000B4BD31893430B4208D104300268084BB8
:109A8000D31893430B42F1D000E001300378002B50
:109A9000FBD1001B10BC02BC08470020FAE7C046FF
:109AA000FFFEFEFE8080808070B50500080011007A
:109AB0000022074C22601A00FEF748FF431C02D028
:109AC00070BC02BC08472368002BF9D02B60F7E775
:109AD000A4B70100002370B5074C050008002360FF
:109AE000FEF7C4FF431C02D070BC02BC08472368C9
:109AF000002BF9D02B60F7E7A4B7010070B5050083
:109B00000C1E08D0002802D0836B002B34D00C220E
:109B1000A35E002B04D10026300070BC02BC0847B5
:109B20002100280000F046F8E36A0600002B05D06B
:109B3000E169280000F03CF8002824DBA3891B061B
:109B400024D4216B002908D023004033994202D04D
:109B5000280000F061F900232363616C002904D020
:109B6000280000F059F900236364FFF7D3FB0023BA
:109B7000A381FFF7D1FBCFE7FFF7C2FB0C22A35E67
:109B8000002BC8D0CCE701267642D7E72169280010
:109B900000F042F9D5E7C04610B5044B0100186843
:109BA000FFF7ACFF10BC02BC0847C04660AE010026
:109BB0001847C046F0B5C64600B50C23CA5E13046C
:109BC0001B0C80460C0019074AD480231B01134349
:109BD0006268A381002A64DDA56A002D64D0424634
:109BE0004146166800221B041B0C0A60E169DA0476
:109BF00000D584E001230022404600F0B9F8431C60
:109C00005AD0A389A56AE1695B0706D56368C01AC3
:109C1000236B002B01D0E36BC01A002302004046E7
:109C200000F0A6F8431C53D0A389384A1340002201
:109C30001B04626022691B14A3812260DB045CD4D4
:109C40004346216B1E6000292ED0230040339942E9
:109C500002D0404600F0E0F800230020236324E017
:109C60002669002E20D022682660951B00229B07C3
:109C700020D0A260002D04DC16E036182D1A002D2D
:109C800012DD2B003200E1694046676A00F071F88E
:109C90000028F2DCA389402201201343A381404223
:109CA00003E0E26B002A97DC002004BC9046F0BC85
:109CB00002BC08476269DCE743461B68002BA0D062
:109CC0001D2B01D0162B1CD1434600201E60ECE753
:109CD00043461D680C22A35E1D2DDCD80C490122D1
:109CE000E9408A43D7D10949626022690B40A381C8
:109CF0002260DB04A4D5002DA2D12065A0E7206D51
:109D000082E74022A3891343A381CEE7FFF7FFFF39
:109D10000100402070B504000D00002802D0836BC4
:109D2000002B0BD00C22AB5E0020002B03D02900AF
:109D30002000FFF73FFF70BC02BC0847FFF7E0FAC6
:109D4000F0E7C04610B5011E06D0064B1868FFF7B5
:109D5000E1FF10BC02BC0847034B04491868FFF739
:109D600023FBF6E760AE010014AD0000159D000076
:109D700028473847F8B50C000600FFF7F1FD214FE2
:109D8000BB685D6803239D431F4B9C462C1B6444AA
:109D9000240B1E4B013C24039C4207DD00213000B4
:109DA000FFF7E2FDBB685B19984206D03000FFF771
:109DB000D9FD0020F8BC02BC084761423000FFF723
:109DC000D3FD431C0DD00122BB682D1B15435D60E4
:109DD0000F4B1A683000141B1C60FFF7C3FD0120F5
:109DE000E8E700213000FFF7BFFDBA68831A0F2BA8
:109DF000DCDD08490968401A0549086001210B4368
:109E00005360D3E79CB20100EF0F0000FF0F00008A
:109E100074B7010094B20100F8B5CE46474605007C
:109E200080B50C1E55D0FFF79BFD210008394F6807
:109E3000012438000323A0430A1856689E43B14604
:109E4000654EB368934229D04B465360D3189C4665
:109E50003C4244D10F68C91B8B6898466346C019C1
:109E60005F6808239C46B4442740E0456CD04346D5
:109E7000CC68DC60A360002F34D101244844044343
:109E8000A0469368554C0F18A34200D181E0D268D8
:109E9000DA60936043464B60386027E003004B4430
:109EA0003C4206D10A68891A88689B18CA68C26051
:109EB000906001221A434A60494A1268B1609A428E
:109EC00004D8484B28001968FFF754FF2800FFF713
:109ED00049FD0CBC90469946F8BC01BC00475F6840
:109EE0002740CAD0012303434B6008503E4B9842A1
:109EF0001AD9430A042B33D8820914003932383472
:109F0000D200B218083A936803279A4239D05C68A5
:109F1000BC43844233D99B689A42F8D1D368CB6062
:109F20008A609960D160D1E7C008FF3B8210FF3B97
:109F300093407268C000134373608619B368CE60A3
:109F40008B60B160D960C1E7002F41D103009068F8
:109F50004B44D2681C43C26090604C60CB50B5E764
:109F6000142B07D9542B1CD8020B14006F326E34FB
:109F7000D200C6E71C005C335B34DA00C1E71A008C
:109F8000CCE70123A410A34070680343736013005F
:109F9000C5E7D9609960CB608B6043464B60386001
:109FA00094E7AA225200934205D8C20B14007832DB
:109FB0007734D200A5E70D4A934205D8820C1400ED
:109FC0007D327C34D2009CE7FE227E24920098E70A
:109FD00004434C60106079E79CB20100A4B2010018
:109FE00098B2010070B70100FF01000054050000A5
:109FF00070B50500080011000022074C22601A000D
:10A00000FEF77CFC431C02D070BC02BC08472368EE
:10A01000002BF9D02B60F7E7A4B7010070B505005D
:10A02000080011000022074C22601A00FEF792FB84
:10A03000431C02D070BC02BC08472368002BF9D037
:10A040002B60F7E7A4B7010080B500AF024800F02D
:10A050003FF80023184680BD20AD000030B5050054
:10A0600089B008000C00FFF7EBFC04AB164A019323
:10A070000223069201220293AB6B059001300494F7
:10A0800007920390AC68002B1AD00C23E25E802369
:10A090009B011A4205D11343A381626E0B4B1340FF
:10A0A000636601AA2100280000F01EF8431E9841B3
:10A0B0000A23404298430A3009B030BC02BC08472A
:10A0C0002800FFF71DF9E0E734AD0000FFDFFFFFD8
:10A0D00010B5044B01001868FFF7C0FF10BC02BCAC
:10A0E0000847C04660AE0100F0B54546DE4657461B
:10A0F0004E46E0B5936883B000900D009046002B6B
:10A1000031D00C228B5E1B041A0C110735D529693E
:10A11000002932D041460E6891073DD56B6A9A46B8
:10A12000B64B002700249946E969002C17D023007C
:10A130004C4500D9B14B3A00009800F068F900286E
:10A1400000DC97E043469B683F18241A181A4346E0
:10A15000986008D06B6AE9699A46002CE7D13768A5
:10A1600074680836E1E7002003B03CBC904699468D
:10A17000A246AB46F0BC02BC08472900009800F09C
:10A1800001FC002800D035E141460C22AB5E1B04E7
:10A190001A0C0E689107C1D4D20773D400229146DD
:10A1A0008022920000279346AC682868002F56D082
:10A1B0005A461B0C134200D1AFE0A246BC4200D964
:10A1C000DFE09022D20013422ED02969441AA4461F
:10A1D000686942001218D00F8218781C521060442F
:10A1E00001949246904201D9824602005B0500D458
:10A1F000D8E011000098FFF703F9041E00D1F3E046
:10A20000019A296900F046F9AB897D4A1340802202
:10A210001343AB815246019B2C61E018BA463C00C7
:10A22000D31A28606A61AB605246494600F078F95B
:10A23000AB681C1BAC603C0000272B6853442B60B0
:10A2400043469B68A1441C1B43469C6000D18AE79F
:10A250000C22AB5EAC6828681B04002FA8D13268C2
:10A26000776891460836A1E729000098FFF752FD6C
:10A27000002832D00C22AB5E402201201343AB8178
:10A28000404271E7002399469A46330000204E462B
:10A29000002799462AE0002834D0B346BE4200D9B0
:10A2A000BB46AA686B6928689C182A69824205D255
:10A2B0000122A34500DC0022120665D15B4500DDCA
:10A2C00085E06C6A5246E969009800F09FF8041E28
:10A2D000D0DD361B0120002EC6D043469B68A24429
:10A2E0003F1B1C1B43469C6000D13CE7002FD2D192
:10A2F0004B461B689A464B465F6808239C46E144E0
:10A30000002FF5D03A000A21504600F081F80028CD
:10A310005BD053460130C61ABFE72B69834218D37E
:10A320006B699A46BB4214D8364B38009F4200D91D
:10A330003548514600F038FC4A4653464343E969E4
:10A3400000986C6A00F062F8002893DD04003F1B5F
:10A3500076E7BC4200D93C002200494600F0E0F814
:10A36000AB682A681B1B1219AB602A60002BEED168
:10A3700029000098FFF7CEFC002800D07AE73F1BA9
:10A380005EE73C00BA464FE75146220000F0C8F8AD
:10A390002B681B192B6029000098FFF7BBFC0028D5
:10A3A00097D067E7009800F00BF9041E00D031E762
:10A3B000009C29692000FFF72FFD8022AB89934381
:10A3C0001B04743A1B14226056E77E1C65E75A464C
:10A3D000514600F0A5F85A46AB689B1AAB602B6853
:10A3E0005B442B605C4674E70C23009A13600C22DC
:10A3F000AB5E41E701204042B6E6C04600FCFF7F6D
:10A400007FFBFFFFFEFFFF7FFFFFFF7F20475047DF
:10A4100070B50E06340E830735D0531E002A1BD0AC
:10A420000278A24219D0032504E0013B14D302783C
:10A43000A24212D001302842F7D1032B10D8002BB2
:10A440000AD00278A24208D0C31802E00278A242E1
:10A4500003D001308342F9D1002070BC02BC084710
:10A46000FF22360C11400E433104084D0E430268A2
:10A4700007497240511891432942E2D1043B04300C
:10A48000032BF4D8DBE71300D7E7C0468080808039
:10A49000FFFEFEFEF0B50F2A39D90D0005430C0072
:10A4A0000300AD0737D11500103D2D092E013618D8
:10A4B000103627681F6067685F60A7689F60E7685D
:10A4C000DF6010331034B342F3D10F2401352D0176
:10A4D000491914404519032C1FD90023CE58EE50BA
:10A4E0000433E61A032EF9D80323043CA4080134EC
:10A4F000A4001A402D190919002A05D00023CC5CAC
:10A50000EC5401339342FAD1F0BC02BC0847050079
:10A51000002AF3D1F8E70500F0E72200F8E7C0468B
:10A52000F0B588420CD98B18984209D2531E002AE4
:10A5300003D0CA5CC254013BFBD2F0BC02BC08474A
:10A540000F2A09D80500002AF7D00023CC5CEC5470
:10A5500001339342FAD1F0E70D0005430C000300EC
:10A56000AD0729D11500103D2D092F013F181037D7
:10A5700026681E6066685E60A6689E60E668DE60AB
:10A5800010331034BB42F3D10F2401352D0149198A
:10A5900014404519032C11D90023CE58EE50043332
:10A5A000E61A032EF9D80323043CA4080134A400BE
:10A5B0002D1909191A40C6E70500C6E72200C2E7AF
:10A5C000F0B5DE46574645464E46E0B5934685B063
:10A5D00007000D1E00D1B8E02E00083EFFF7C0F9BD
:10A5E00073681A000193140003239C435B460B33EA
:10A5F000B146162B49D81020002110238246DA4597
:10A6000000D243E1002900D040E1311988469C4244
:10A610007DDAD64A9168414500D1BFE04246506894
:10A62000012102008A439446C444624652680A42A9
:10A6300000D18FE0019A114200D1FDE05946380067
:10A64000FEF7DEFE804600281BD0012372689A4385
:10A65000B3180200083A934200D12FE1221F242AA6
:10A6600000D932E129680300132A00D913E12A0036
:10A6700019605168596092689A6029003800FFF7A4
:10A68000CBFB3800FFF76EF955E007218B439A4664
:10A69000D90FB4E7019A1142D0D161463268B21A9B
:10A6A0000192526803928A43029951180919029142
:10A6B000994200DAC9E043464246DB689268019855
:10A6C000D3609A60C3688268D3609A60029B060078
:10A6D00098468446221F0836E044242A00D9E4E044
:10A6E00029683300132A09D981606B68C3601B2A6B
:10A6F00000D900E10300A9681033083519606A68C1
:10A700005A60AA689A60019B35009946029C53469C
:10A710004A46E01A012352681A400F282BD84946AE
:10A7200022434A604246526813434246536038000F
:10A73000FFF718F9A846404605B03CBC904699463C
:10A74000A246AB46F0BC02BC08471100FEF758FE1B
:10A750008046F0E7032290430290201894469842E6
:10A7600098DB43464246B046DB6892688044D3603B
:10A7700004009A60CBE75446144322004C464946F5
:10A78000626042465144184348605268134342464F
:10A79000083153603800FFF73FFBC8E703225046FB
:10A7A000496891431030091994468046814200DB84
:10A7B0008FE0019AD20700D540E760463268B21AAE
:10A7C0000192526882438918029188453DDC0198C4
:10A7D0008268C3688446D3609A60082262449046C7
:10A7E000221F242A00D9B0E029684346132A09D938
:10A7F00081606B68C3601B2A00D9ABE00300A968C5
:10A800001033083519606A685A60AA689A6001991D
:10A810000B0053441A0050460124544B9A60029B8B
:10A820001B1A234353604A68144004434C603800A9
:10A830000192FFF797F87EE73268B21A01925268E8
:10A8400002920322029991430A00A11802919942AF
:10A8500000DAF3E60198844606008268C368614422
:10A86000D3609A60221F08368846242A1DD829689A
:10A870003300132A00D841E781606B68C3601B2A4C
:10A8800039D81030A9680300083537E70C233B603E
:10A89000002398464FE70160696841601B2A35D85C
:10A8A0002A0008330832A968E2E629003000FFF7E1
:10A8B00037FE019B3500029C994628E70322B046EB
:10A8C0005B689343E418A04421E72900FFF728FEC2
:10A8D000D3E65346254AF318936052460124891A59
:10A8E0002143596073681C40144374603800FFF7BB
:10A8F00039F8A8461FE7A968019B1961E968596101
:10A90000242A0ED0296918331035F7E6A96881602A
:10A91000E968C160242A0ED02A0010331032296958
:10A92000A6E62B69019A936113006969D16120330E
:10A93000A9691835E2E62A69010002612A006869FE
:10A94000486118321833A96992E629004046FFF79A
:10A95000E7FD5CE7A968019B1961E9685961242A50
:10A9600006D02969183310354CE7C0469CB2010067
:10A970002B69019A936113006969D1612033A96938
:10A9800018353FE7354B70B5050018680C000028F6
:10A9900002D0836B002B41D00C23E25E13041B0C0E
:10A9A00019070FD52169002918D0DA0725D500230A
:10A9B000A36063695B42A3610020002925D070BCBD
:10A9C00002BC0847D90641D55B072AD42169082370
:10A9D0001A43A2811204130C0029E6D1A022802080
:10A9E000920080001A408242DFD02100280000F04F
:10A9F00069F8A3892169DA07D9D400229B0700D41A
:10AA00006269A26000200029D9D10C22A35E1A0637
:10AA1000D5D540221343A3810138D0E7FEF770FC5F
:10AA2000BAE7216B00290AD023004033994204D0B1
:10AA30002800FFF7F1F90C23E25E002323632423AF
:10AA40009A430023216963602160C0E709232B60DA
:10AA5000402301201A43A2814042B0E760AE0100CA
:10AA600070B50C001E000E23C95E90B015000029C1
:10AA700010DA00233360A3891B0607D4802300204B
:10AA8000DB002B6010B070BC02BC084740230020E4
:10AA90002B60F7E701AA00F05DF80028E9DBF0225F
:10AAA000029B12021340064A944663445A425341A1
:10AAB000336080238020DB002B600001E2E7C0468A
:10AAC00000E0FFFF70B58B8982B005000C009B078A
:10AAD00009D523004333236023610123636102B05E
:10AAE00070BC01BC004701AB6A46FFF7B9FF009993
:10AAF00006002800FEF784FC00281ED08022144B9C
:10AB0000EB63A3891343009A1B046261019A1B142F
:10AB1000A38120602061002A02D13343A381DEE7B4
:10AB20000E23E15E280000F02BF800280DD0012252
:10AB3000A38913431B041B14EFE70C22A35E9A05A1
:10AB4000CDD402221343A381C3E70C22A35EE4E722
:10AB50001D910000002370B5084C0500080011008D
:10AB60002360FEF761F8431C02D070BC02BC0847AA
:10AB70002368002BF9D02B60F7E7C046A4B701008B
:10AB8000002370B5074C050008002360FEF7E2F9CA
:10AB9000431C02D070BC02BC08472368002BF9D0CC
:10ABA0002B60F7E7A4B70100000051E34300000A5F
:10ABB00001C020E000106142012051E22700000A9C
:10ABC0000030B0E100306042010053E12600009AFD
:10ABD000020011E12800000A0E0211E38111A00118
:10ABE0000820A0030120A013010251E3030051310A
:10ABF0000112A0310222A031FAFFFF3A020151E313
:10AC0000030051318110A0318220A031FAFFFF3AB8
:10AC10000000A0E3010053E1013043200200802145
:10AC2000A10053E1A1304320A2008021210153E182
:10AC30002131432022018021A10153E1A131432090
:10AC4000A2018021000053E32222B0112112A011A1
:10AC5000EFFFFF1A00005CE3000060421EFF2FE1DF
:10AC600000003CE1000060421EFF2FE10000A03325
:10AC7000CC0FA001010080031EFF2FE1010851E36A
:10AC80002118A0211020A0230020A033010C51E3A3
:10AC90002114A02108208222100051E32112A021BA
:10ACA00004208222040051E303208282A1208290AA
:10ACB00000005CE33302A0E1000060421EFF2FE1D0
:10ACC0001FFF2FE10000A0E1000050E30201E0C3FC
:10ACD0000201A0B3090000EA000051E3F7FFFF0AF8
:10ACE00003402DE9B1FFFFEB0640BDE8920003E011
:10ACF000031041E01EFF2FE17047C0460000000036
:08AD000004F01FE5F9AC0000AE
:0CAD0800F8B5C046F8BC08BC9E46704779
:10AD140068AE0100430000003A74740048656C6C2E
:10AD24006F2041524D20576F726C64210000000067
:04AD34000A00000011
:08AD3800ACD3FF7F0100000015
:04AD4000000000000F
:020000021000EC
:04AD4400B9800000D2
:04AD480089800000FE
:10AD500000000000000000000000000000000000F3
:10AD600000000000000000000000000000000000E3
:10AD700000000000000000000000000000000000D3
:10AD800000000000000000000000000000000000C3
:10AD900000000000000000000000000000000000B3
:10ADA00000000000000000000000000000000000A3
:10ADB0000000000000000000000000000000000093
:10ADC0000000000000000000000000000000000083
:10ADD0000000000000000000000000000000000073
:10ADE0000000000000000000000000000000000063
:10ADF0000000000000000000000000000000000053
:10AE00000000000000000000000000000000000042
:10AE10000000000000000000000000000000000032
:10AE20000000000000000000000000000000000022
:10AE30000000000000000000000000000000000012
:10AE40000000000000000000000000000000000002
:10AE500000000000000000000000000000000000F2
:10AE600068AE0100000000000000000054B10100C5
:10AE7000BCB1010024B2010000000000000000008D
:10AE800000000000000000000000000000000000C2
:10AE900000000000000000000000000018AD0000ED
:10AEA00000000000000000000000000000000000A2
:10AEB0000000000000000000000000000000000092
:10AEC0000000000000000000000000000000000082
:10AED0000000000000000000000000000000000072
:10AEE0000000000000000000000000000000000062
:10AEF0000000000000000000000000000000000052
:10AF00000000000000000000000000000000000041
:10AF100001000000000000000E33CDAB34126DE6DE
:10AF2000ECDE05000B000000000000000000000047
:10AF30000000000000000000000000000000000011
:10AF40000000000000000000000000000000000001
:10AF500000000000000000000000000000000000F1
:10AF600000000000000000000000000000000000E1
:10B29000ADDEFECAFFFFFFFF00000200000000005D
:10B2A000000000009CB201009CB20100A4B20100A9
:10B2B000A4B20100ACB20100ACB20100B4B2010012
:10B2C000B4B20100BCB20100BCB20100C4B20100C2
:10B2D000C4B20100CCB20100CCB20100D4B2010072
:10B2E000D4B20100DCB20100DCB20100E4B2010022
:10B2F000E4B20100ECB20100ECB20100F4B20100D2
:10B30000F4B20100FCB20100FCB2010004B3010080
:10B3100004B301000CB301000CB3010014B301002D
:10B3200014B301001CB301001CB3010024B30100DD
:10B3300024B301002CB301002CB3010034B301008D
:10B3400034B301003CB301003CB3010044B301003D
:10B3500044B301004CB301004CB3010054B30100ED
:10B3600054B301005CB301005CB3010064B301009D
:10B3700064B301006CB301006CB3010074B301004D
:10B3800074B301007CB301007CB3010084B30100FD
:10B3900084B301008CB301008CB3010094B30100AD
:10B3A00094B301009CB301009CB30100A4B301005D
:10B3B000A4B30100ACB30100ACB30100B4B301000D
:10B3C000B4B30100BCB30100BCB30100C4B30100BD
:10B3D000C4B30100CCB30100CCB30100D4B301006D
:10B3E000D4B30100DCB30100DCB30100E4B301001D
:10B3F000E4B30100ECB30100ECB30100F4B30100CD
:10B40000F4B30100FCB30100FCB3010004B401007B
:10B4100004B401000CB401000CB4010014B4010028
:10B4200014B401001CB401001CB4010024B40100D8
:10B4300024B401002CB401002CB4010034B4010088
:10B4400034B401003CB401003CB4010044B4010038
:10B4500044B401004CB401004CB4010054B40100E8
:10B4600054B401005CB401005CB4010064B4010098
:10B4700064B401006CB401006CB4010074B4010048
:10B4800074B401007CB401007CB4010084B40100F8
:10B4900084B401008CB401008CB4010094B40100A8
:10B4A00094B401009CB401009CB40100A4B4010058
:10B4B000A4B40100ACB40100ACB40100B4B4010008
:10B4C000B4B40100BCB40100BCB40100C4B40100B8
:10B4D000C4B40100CCB40100CCB40100D4B4010068
:10B4E000D4B40100DCB40100DCB40100E4B4010018
:10B4F000E4B40100ECB40100ECB40100F4B40100C8
:10B50000F4B40100FCB40100FCB4010004B5010076
:10B5100004B501000CB501000CB5010014B5010023
:10B5200014B501001CB501001CB5010024B50100D3
:10B5300024B501002CB501002CB5010034B5010083
:10B5400034B501003CB501003CB5010044B5010033
:10B5500044B501004CB501004CB5010054B50100E3
:10B5600054B501005CB501005CB5010064B5010093
:10B5700064B501006CB501006CB5010074B5010043
:10B5800074B501007CB501007CB5010084B50100F3
:10B5900084B501008CB501008CB5010094B50100A3
:10B5A00094B501009CB501009CB50100A4B5010053
:10B5B000A4B50100ACB50100ACB50100B4B5010003
:10B5C000B4B50100BCB50100BCB50100C4B50100B3
:10B5D000C4B50100CCB50100CCB50100D4B5010063
:10B5E000D4B50100DCB50100DCB50100E4B5010013
:10B5F000E4B50100ECB50100ECB50100F4B50100C3
:10B60000F4B50100FCB50100FCB5010004B6010071
:10B6100004B601000CB601000CB6010014B601001E
:10B6200014B601001CB601001CB6010024B60100CE
:10B6300024B601002CB601002CB6010034B601007E
:10B6400034B601003CB601003CB6010044B601002E
:10B6500044B601004CB601004CB6010054B60100DE
:10B6600054B601005CB601005CB6010064B601008E
:10B6700064B601006CB601006CB6010074B601003E
:10B6800074B601007CB601007CB6010084B60100EE
:10B6900084B601008CB601008CB6010094B601009E
:04B6A00094B601005B
:04000003000080E495
:00000001FF
